:020000040800F2
:1000000010280020D90B0108F90D0108FB0D01088B
:10001000FF0D0108030E0108070E01080000000093
:100020000000000000000000000000000B0E0108AE
:100030000D0E0108000000000F0E0108110E01084E
:10004000F30B0108F30B0108F30B0108BFDF0008F5
:10005000F30B0108F30B0108F30B0108F30B010884
:10006000F30B0108F30B0108F30B0108F30B010874
:10007000F30B0108F30B0108F30B0108F30B010864
:10008000F30B0108F30B0108F30B0108F30B010854
:10009000F30B0108F30B0108F30B0108F30B010844
:1000A000F30B0108F30B0108F30B0108F30B010834
:1000B000F30B01085DC90008F30B0108F30B0108FD
:1000C000F30B0108F30B0108F30B0108F30B010814
:1000D000F30B0108E5CE0008F30B0108F30B010850
:1000E000F30B0108F30B0108F30B010800F002F811
:1000F00000F05EF80AA090E8000C82448344AAF164
:100100000107DA4501D100F053F8AFF2090EBAE861
:100110000F0013F0010F18BFFB1A43F0010318473B
:1001200090490100B049010010F8013B0A4413F066
:10013000030408BF10F8014B1D1108BF10F8015B44
:10014000641E05D010F8016B641E01F8016BF9D133
:10015000002D15D010F8014B03F00C030C2BA1EB74
:1001600004040ABF10F8013BA4EB8314A4EB03249E
:1001700005F1010314F8016B5B1E01F8016BF9D561
:10018000914238BF10F8013BD1D3704700230024BF
:1001900000250026103A28BF78C1FBD8520728BF97
:1001A00030C148BF0B6070471FB51FBD10B510BDF3
:1001B00010F0A6FE1146FFF7F7FF0CF076FA10F0EC
:1001C000C4FE03B4FFF7F2FF03BC10F0C9FE000049
:1001D000002000BF04E02021FC4A1154411CC8B299
:1001E0007928F8DB704730B5C0EB001301EB43030F
:1001F000F74C23800AE012F8013BF44CF44D2D88B3
:100200006355F34B1B885B1CF14C23801378002B48
:10021000F1D130BDEF4800780C2816D10520EE4909
:100220000870EE4908700020ED498870C870ED49EB
:10023000C8700120EC4908700020EC4908700120CA
:10024000EB490870EB49087065E0E24800780B283C
:100250002BD10020E0490870E0490870E04988701F
:10026000C870E049C8700120DF490870E049087093
:10027000E0490870E048007810B10120DF490870BB
:100280000020DD490870DE490870DE48007820F063
:100290000200DC490870DC48007820F04000DA49B0
:1002A00008700020D949087035E0CA48007890B33A
:1002B000D7480078C0F3C00068BBD5480078C0F3C9
:1002C000001040BBD2480078C0F3401018BBD048A3
:1002D0000078C0F38010F0B9CD48007820F04000DD
:1002E0004030CB4908700846007820F020002030CC
:1002F00008700846007820F010001030087008469A
:10030000007820F00800083008700120B849087013
:100310000320B84908700020AE4908707047AD4806
:1003200000780C2805D10020AB490870AB49087053
:1003300008E0A84800780E2804D0A64800780328D2
:1003400000D000BF7047A34800780C2805D10020DA
:10035000A1490870A149087008E09E4800780E285D
:1003600004D09C480078032800D000BF704799480B
:1003700000780C2811D1002097490870974908701F
:1003800097498870C8709749C870012096490870CD
:10039000974908709749087008E08E4800780E2841
:1003A00004D08C480078032800D000BF704770B597
:1003B000984D994E87480078102803D085480078DA
:1003C0000B2846D183480078102829D193A2032115
:1003D00001200EF039F999A2032102200EF034F920
:1003E0008C4D8D4E002403E0305D2855601CC4B256
:1003F000C82CF9DB00240DE0295D984A1278521EC2
:100400004FF4807303EB0222224490B20DF050FBB4
:10041000601CC4B2C82CEFDB41F270700DF028FCF8
:1004200000206D4908706D4908706D498870C8706A
:1004300001206D4908706E4908706E4908700020EF
:10044000874908708749087087490870874908708C
:1004500035E06048007890B36D480078C0F3C00084
:1004600068BB6B480078C0F3001040BB6848007858
:10047000C0F3401018BB66480078C0F38010F0B994
:100480006348007820F04000403061490870084619
:10049000007820F02000203008700846007820F016
:1004A0001000103008700846007820F0080008306E
:1004B000087001204E49087003204E490870002042
:1004C0004449087070BD5448424909780C291ED12E
:1004D0000021414A1170414A1170414A9170D17016
:1004E0000121404AD170424A1170424A11700021E4
:1004F0005B4A11705B4A11705B4A11705B4A117064
:100500005B49097821F00801594A117003E2314929
:1005100009780E2958D15549097831B1012915D0EA
:10052000022932D0032950D1A4E04F490978491C4F
:10053000C9B24D4A1170117011460978182901DDB0
:10054000002111700021474A117005E146490978E0
:10055000042202EBC101415C491CCAB2424909783C
:10056000042303EBC10142543F49097800EBC10168
:100570000979632908DD63223B49097803EBC1014E
:10058000425403211B4A1170E6E0374909780522DD
:1005900002EBC101415C491CCAB233490978052309
:1005A00003EBC10142543049097800EBC10149799C
:1005B0003B2908DD3B222C49097803EBC101425459
:1005C00003210C4A1170C7E0C7E08CE03321002002
:1005D000C8130020D4140020C1130020C21300202F
:1005E000C3130020201A0020B81300204B00002065
:1005F0004A0000204900002022150020D7130020C7
:10060000341400205F0000205E000020361400201B
:100610005A000020841800204C190020202020209F
:1006200020CAFDBEDDD5FDD4DAB1A3B4E62C20206E
:1006300020202020202020202020000020202020FA
:1006400020202020202020C7EBC9D4BAF22E2E2E45
:10065000202020202020202020200000D613002051
:10066000BA130020BB1300204D00002053000020CF
:1006700057000020F9490978062202EBC101425CCB
:10068000F74991F85B108A4209DAF54991F8592047
:10069000F2490978062303EBC101425422E0EF49F5
:1006A0000978062202EBC101415C491CCAB2EB4940
:1006B0000978062303EBC1014254E849097800EBAD
:1006C000C1018A79E64991F85A108A420ADDE44963
:1006D00091F85A20E149097803EBC1014254032102
:1006E000E04A117038E0DD490978022202EBC101CD
:1006F000425CDB4991F82A108A4209DAD84991F81C
:100700002A20D6490978022303EBC101425422E092
:10071000D2490978022202EBC101415C491CCAB2EC
:10072000CE490978022303EBC1014254CB49097831
:1007300000EBC1018978CA4A92F8282091420ADD6B
:10074000C74991F82820C549097803EBC1014254F3
:100750000321C44A117000BFD8E6C34909780329B0
:100760007ED1C249097831B1012917D002293BD085
:10077000032976D15EE0B9490978002907DDB74938
:100780000978491EC9B2B54A1170117002E01821EA
:10079000B24A11700021B64A1170A4E0AF4909783D
:1007A00000EBC1010979002913DDAC490978042265
:1007B00002EBC101415C491ECAB2A8490978042371
:1007C00003EBC1014254A549097803EBC10142542E
:1007D00009E00022A1490978042303EBC101425436
:1007E0000321A04A11707EE09C49097800EBC10109
:1007F0004979002913DD99490978052202EBC101E5
:10080000415C491ECAB295490978052303EBC10131
:1008100042549249097803EBC101425409E0002295
:100820008E490978052303EBC101425403218D4A07
:10083000117058E08949097800EBC1018A7988492B
:1008400091F85B108A4216DD84490978062202EB92
:10085000C101415C491ECAB280490978062301E002
:1008600042E015E003EBC10142547C49097803EBF7
:10087000C10142540BE07A4991F85920774909782F
:10088000062303EBC10142540321764A11702AE08A
:100890007249097800EBC1018A78714991F82A10F0
:1008A0008A4213DD6D490978022202EBC101415CE5
:1008B000491ECAB269490978022303EBC1014254B7
:1008C0006649097803EBC10142540BE0644991F891
:1008D0002A2062490978022303EBC1014254032113
:1008E000604A117000BF3CE35F490978072913D1C2
:1008F0000621604A1170604A117001215F4A9170AF
:100900000021D1705E4AD17001215E4A11705E4AA9
:100910001170544A117024E3534909780F2917D1F3
:1009200001215A4A1170554A517050490978491CA1
:10093000C9B24E4A1170117011460978052901DBC0
:10094000002111700121504A1170464A117008E3CC
:10095000454909780A2959D14D490978C909A9BBDE
:100960004B490978C1F3400191B94A490978C1F36B
:10097000C00169B94649097821F00201891C444A3D
:10098000117058223549097800EBC101CA7030E076
:100990003F490978C1F34001C9B13E490978C1F323
:1009A000C001A1B93A49097821F00201384A117011
:1009B0003849097821F008010831364A11704A2275
:1009C0002649097800EBC101CA7012E017E03049EE
:1009D000097821F002012E4A11702E49097821F080
:1009E00008012C4A117000221C49097800EBC10152
:1009F000CA700121244A11701A4A1170B1E2012112
:100A0000214A11700321174A1170AAE21649097888
:100A100004295CD11E490978C909E9BB1C49097838
:100A2000C1F38011C1BB1A4909788908C943184A22
:100A3000127861F3820216490A700978C1F38001C5
:100A400059B30649097800EBC101497841F0010228
:100A50000249097800EBC1014A702BE04D000020EB
:100A60002B1A002049000020D4140020530000203D
:100A7000BB130020C1130020C2130020C3130020A9
:100A8000201A0020B81300204A0000201300002084
:100A9000590000205700002012E0FFE7FE490978C6
:100AA00000EBC101497801F00E02FB49097800EB27
:100AB000C1014A700121F94A1170F94A117050E2DE
:100AC0000121F64A11700321F54A117049E2F549F6
:100AD000097808293DD1F4490978C90989BBF24947
:100AE0000978C1F3801161BBEF490978C908C9438E
:100AF000ED4A127861F3C302EB490A700978C1F339
:100B0000C00161B1E449097800EBC101497841F0C5
:100B10000202E149097800EBC1014A700BE0DE49AD
:100B2000097800EBC101497801F00D02DA49097832
:100B300000EBC1014A700121D84A1170D84A1170E6
:100B40000FE2FFE70121D54A11700321D44A117049
:100B500007E2D44909780D293DD1D3490978C9095B
:100B600089BBD1490978C1F3801161BBCE490978AD
:100B70000909C943CC4A127861F30412CA490A70C0
:100B80000978C1F3001161B1C349097800EBC101D3
:100B9000497841F00402C049097800EBC1014A706C
:100BA0000BE0BD49097800EBC101497801F00B0267
:100BB000B949097800EBC1014A700121B74A1170A7
:100BC000B74A1170CDE1FFE70121B44A117003214A
:100BD000B34A1170C5E1B3490978012952D1B2492C
:100BE0000978C90981BBB0490978C1F3801159BBA3
:100BF000AE49097851B90121AC4A1170AA49097866
:100C000021F020012031A84A117027E0A749097876
:100C100001290AD10221A54A1170A349097821F0BE
:100C200020012031A04A117018E0A049097802295A
:100C30000BD103219D4A11709B49097821F02001B5
:100C40002031994A117009E015E00021974A11708E
:100C50009549097821F02001934A117093490A7847
:100C60008D49097800EBC101CA7101218B4A1170CD
:100C70008B4A117075E10121884A11700321884A5D
:100C800011706EE187490978052969D1864909788B
:100C9000C909E9BB844909788909C943824A12789C
:100CA00061F3861280490A700978C1F3801161B13D
:100CB0007949097800EBC101497841F00802764989
:100CC000097800EBC1014A700BE07349097800EB29
:100CD000C101497801F007026F49097800EBC101B1
:100CE0004A7071490978C1F3801161B36E4909787E
:100CF00021F004016C4A11701146097821F00801B5
:100D000011701146097821F010011170002100E0E6
:100D10001FE0664A11706449097821F02001624A97
:100D2000117000225C49097800EBC101CA715A496F
:100D3000097800EBC101497801F0080256490978A9
:100D400000EBC1014A700121544A1170544A1170DC
:100D500007E10121514A11700321514A117000E14C
:100D60005049097809297DD151490978E9BB012108
:100D70004F4A11704C49097821F0800180314A4A6C
:100D800011701146097821F0020111704949097862
:100D900021F00801474A11704349097821F0040104
:100DA000414A11701146097821F00801117011466D
:100DB000097821F01001117000213C4A11703A4964
:100DC000097821F02001384A11700022324909784F
:100DD00000EBC101CA713449097821F04001324A5F
:100DE00011705A222C49097800E009E000EBC1019A
:100DF000CA7000222849097800EBC1014A70A1E0BD
:100E00002B490978012959D10221294A1170264913
:100E1000097821F080018031234A11701146097848
:100E200021F0020111702349097821F00801214ABB
:100E300011701D49097821F004011B4A11701146F7
:100E4000097821F0080111701146097821F010018C
:100E500011700021154A11701349097821F0200101
:100E6000114A00E074E0117000220B49097800EB90
:100E7000C101CA710C49097821F040010A4A117078
:100E800047220549097800EBC101CA7000220249D6
:100E9000097800EBC1010FE04D0000204A0000205E
:100EA00049000020D4140020590000201B0000201D
:100EB0001C000020570000204A7043E00021F94A3E
:100EC0001170F949097821F08001F74A1170114633
:100ED000097821F002011170F449097821F0080124
:100EE000F24A1170F049097821F00401EE4A1170BC
:100EF0001146097821F0080111701146097821F096
:100F0000100111700021EA4A1170E749097821F0B7
:100F10002001E54A11700022E649097800EBC10181
:100F2000CA71E149097821F04001DF4A11700022BD
:100F3000E049097800EBC101CA70DE49097800EB8D
:100F4000C1014A700121DC4A1170DC4A117008E0CD
:100F5000DB49097829B10121D74A11700321D74A09
:100F600011707047D7490878D54909780C2926D1DE
:100F7000D5490978C1F3401129B90021D34A11702C
:100F8000D34A117009E0D0490978C1F3401121B169
:100F90000A21CE4A1170CE4A11700021CD4A9170BB
:100FA000D1700121CC4AD1700021CC4A1170CC4AB9
:100FB00011700121C04A1170C04A117081E0C0490E
:100FC00009780E2923D120B1C249C978491EC14AE6
:100FD000D170C049CA78411E8A4202DCBD49C97835
:100FE00011B90021BB4AD170BE490978C1F3C001D3
:100FF000002966D1BB49097821F008010831B94AB6
:1010000011700121AC4A1170AC4A117059E0AC4921
:10101000097803291FD158B1AE49C978491CAD4A96
:10102000D1701146CA78411E8A4201DDA94AD170A9
:10103000AC490978C1F3C001002942D1A949097816
:1010400021F008010831A74A117001219A4A117054
:101050009A4A117035E09A49097891B3A149097803
:10106000C1F3C00169BB9F490978C1F3001141BBBD
:101070009C490978C1F3401119BB9A490978C1F319
:101080008011F1B99749097821F040014031954A22
:1010900011701146097821F020012031117011469C
:1010A000097821F01001103111701146097821F0F2
:1010B00008010831117001217F4A117003217F4A14
:1010C000117000217E4A117070477D4800780C280D
:1010D00010D103207D4908707D49087001207D49A9
:1010E000887008460079C8700120734908707349F8
:1010F000087056E0724800780E2806D101206E492B
:10110000087003206D4908704BE06D480078032893
:1011100006D101206849087003206849087040E042
:1011200067480078072806D101206349087003202A
:101130006249087035E06248007890B369480078E9
:10114000C0F3C00068BB67480078C0F3001040BB24
:1011500064480078C0F3401018BB62480078C0F3C0
:101160008010F0B95F48007820F0400040305D49C1
:1011700008700846007820F02000203008700846EB
:10118000007820F01000103008700846007820F039
:1011900008000830087001204749087003204749BB
:1011A00008700020464908707047454800780C28B0
:1011B00010D1032045490870454908700120454970
:1011C000887008460079C87001203B4908703B4987
:1011D000087056E03A4800780E2806D101203649BA
:1011E00008700320354908704BE035480078032823
:1011F00006D101203049087003203049087040E0D2
:101200002F480078072806D101202B4908700320B9
:101210002A49087035E02A48007890B331480078B0
:10122000C0F3C00068BB2F480078C0F3001040BB7B
:101230002C480078C0F3401018BB2A480078C0F34F
:101240008010F0B92748007820F040004030254950
:1012500008700846007820F020002030087008460A
:10126000007820F01000103008700846007820F058
:1012700008000830087001200F49087003200F494A
:10128000087000200E490870704770B50C4800784F
:101290000C283AD10F48407818B100200D49487009
:1012A0002DE021E01C000020590000205700002004
:1012B0001B0000204D0000204A00002049000020B3
:1012C000D4140020CA1300205B000020C1130020AA
:1012D000C2130020C3130020201A0020BC130020DA
:1012E000BF1300205A0000200320FC490870FC496D
:1012F00008700120FB49887008460079C8700120F9
:10130000F9490870F9490870E4E1F94800780E28B5
:1013100072D1F448407800286FD0F248C07818B1F4
:10132000F048C078012816D1EE48C178F148405CF9
:101330000F280ADAEB48C178EE48405C401CC0B286
:10134000E849CA78EB49885400E00F20E549CA789B
:10135000E84988547EE0E348C078022816D1E14885
:10136000C178E448405C14280ADADE48C178E148D4
:10137000405C401CC0B2DB49CA78DE49885400E0BA
:101380001420D849CA78DB49885463E0D548C0782E
:10139000032816D1D348C178D648405C5A280ADAC7
:1013A000D048C178D348405C401CC0B2CD49CA780F
:1013B000D049885400E05A20CA49CA78CD49885497
:1013C00048E0C848C078042818D1C648C178C94840
:1013D000405C96280ADAC348C178C648405C401C85
:1013E000C0B2C049CA78C349885400E09620BD49BC
:1013F000CA78C04988542DE03FE01AE0B948C07867
:10140000072827D1B748C178BA48405C08280ADACB
:10141000B448C178B748405C401CC0B2B149CA78F2
:10142000B449885400E00820AE49CA78B1498854CC
:1014300010E0AC48C078401EAA49C8700846C07881
:10144000AD490978884202DCA648C07810B900206E
:10145000A449C870A9480078C0F3C00000280BD187
:10146000A648007820F008000830A4490870012040
:101470009D4908709D4908702CE19D48007803281B
:1014800072D19848407800286FD09648C07818B13B
:101490009448C078012816D19248C1789548405C9C
:1014A0000A280ADD8F48C1789248405C401EC0B2CD
:1014B0008C49CA788F49885400E00A208949CA7843
:1014C0008C4988547CE08748C078022816D185482A
:1014D000C1788848405C0F280ADD8248C178854879
:1014E000405C401EC0B27F49CA788249885400E0FF
:1014F0000F207C49CA787F49885461E07948C078D8
:10150000032816D17748C1787A48405C1E280ADD46
:101510007448C1787748405C401EC0B27149CA78AF
:101520007449885400E01E206E49CA787149885475
:1015300046E06C48C078042818D16A48C1786D48E4
:10154000405C5A280ADD6748C1786A48405C401E02
:10155000C0B26449CA786749885400E05A2061499A
:10156000CA78644988542BE03DE01AE05D48C078B1
:10157000072825D15B48C1785E48405C04280ADD15
:101580005848C1785B48405C401EC0B25549CA7893
:101590005849885400E004205249CA785549885473
:1015A0000EE05048C078401C4E49C8700846C078CC
:1015B00051490978884203DD4F4800784949C8708D
:1015C0004E480078C0F3C00000280BD14B4800788B
:1015D00020F008000830494908700120424908708D
:1015E0004249087076E04248007807283CD13D48DF
:1015F0000078B0B13B48407898B93A48C07807289D
:101600000FDC3848C078052803D13648C078062852
:1016100007D00120334948703349087033490870B6
:1016200058E030480078C0B12E484078A8B1314D1C
:1016300000202C494870002407E015F8011B04F134
:1016400068000CF035FA601CC4B2082CF5DB0120F0
:1016500025490870254908703CE00120224908709E
:1016600003202249087035E02148007890B32348D0
:101670000078C0F3C00068BB20480078C0F30010B9
:1016800040BB1E480078C0F3401018BB1B480078D0
:10169000C0F38010F0B91948007820F040004030C5
:1016A000164908700846007820F0200020300870A5
:1016B0000846007820F010001030087008460078C6
:1016C00020F0080008300870012007490870032046
:1016D0000649087000200649087070BDC11300203B
:1016E000C2130020C31300204A000020490000203C
:1016F000D4140020931A0020BC1300205A000020AC
:10170000FE4800780C2810D10320FD490870FD49DF
:1017100008700120FC49887008460079C8700120D3
:10172000FA490870FA4908708EE0F44800780E28EB
:1017300023D1F548C078401EF349C8700846C078E8
:10174000F4490978884202DCEF48C07810B90020DB
:10175000ED49C870F0480078C0F3C000002873D18C
:10176000ED48007820F008000830EB4908700120AF
:10177000E6490870E649087066E0E048007803280A
:1017800021D1E148C078401CDF49C8700846C078C4
:10179000E0490978884203DDDE480078DA49C870FC
:1017A000DD480078C0F3C00000284DD1DA48007849
:1017B00020F008000830D84908700120D34908708B
:1017C000D349087040E0CD480078072806D10120B1
:1017D000CE4908700320CE49087035E0C74800782C
:1017E00090B3CD480078C0F3C00068BBCA48007809
:1017F000C0F3001040BBC8480078C0F3401018BBCD
:10180000C5480078C0F38010F0B9C348007820F0D4
:1018100040004030C04908700846007820F02000A1
:10182000203008700846007820F010001030087052
:101830000846007820F00800083008700120B349FD
:1018400008700320B24908700020AC490870704746
:1018500070B5AA4800780C2817D1AB48407818B169
:101860000020A94948700AE00320A5490870A5494D
:1018700008700120A449887008460079C8700120CA
:10188000A2490870A2490870F0E09C4800780E2830
:101890003DD19D484078B0B19B48C1789F48405C9D
:1018A00063280ADA9848C1789C48405C401CC0B262
:1018B0009549CA789949885400E063209249CA78CA
:1018C0009649885410E09048C078401E8E49C870F0
:1018D0000846C0788F490978884202DC8A48C07877
:1018E00010B900208849C8708B480078C0F3C00048
:1018F0000028C9D18848007820F0080008308649BF
:10190000087001208149087081490870AEE07B4869
:10191000007803283BD17C484078B0B17A48C17840
:101920007E48405C00280ADD7748C1787B48405CEF
:10193000401EC0B27449CA787849885400E000203B
:101940007149CA78754988540EE06F48C078401CC8
:101950006D49C8700846C0786E490978884203DD31
:101960006C4800786849C8706B480078C0F3C000C4
:1019700000287BD16848007820F0080008306649CC
:101980000870012061490870614908706EE05B4889
:101990000078072834D15C48007870B15A48407804
:1019A00058B95948C078032807DC012056494870C7
:1019B000564908705649087058E053480078C0B13D
:1019C00051484078A8B1554D00204F494870002437
:1019D00007E015F8011B04F158000CF069F8601CD1
:1019E000C4B2042CF5DB012048490870484908704E
:1019F0003CE001204549087003204549087035E066
:101A00003E48007890B344480078C0F3C00068BBFB
:101A100041480078C0F3001040BB3F480078C0F355
:101A2000401018BB3C480078C0F38010F0B93A4829
:101A3000007820F0400040303749087008460078B0
:101A400020F02000203008700846007820F01000B8
:101A5000103008700846007820F008000830087040
:101A600001202A49087003202949087000202349D1
:101A7000087070BD70B5214800780C2817D1224835
:101A8000407818B10020204948700AE003201C4922
:101A900008701C49087001201B49887008460079AD
:101AA000C8700120194908701949087031E11348BC
:101AB00000780E287ED114484078002855D012486E
:101AC000C07838B11048C078022803D00E48C078DA
:101AD00004282BD10C48C17810480838405C632892
:101AE0001EDA0948C1780D480838405C401CC0B275
:101AF0000549CA7809490839885412E0D4140020ED
:101B0000C1130020C2130020C31300204A0000208C
:101B100049000020BC1300205A000020831A002036
:101B20006320FB49CA78FB4988542FE0F848C07805
:101B3000012803D0F648C078032827D1F448C1789B
:101B4000F448405C78280ADAF148C178F148405CF2
:101B5000401CC0B2EE49CA78EE49885400E07820B3
:101B6000EB49CA78EB49885410E0E948C078401E38
:101B7000E749C8700846C078E7490978884202DC1E
:101B8000E348C07810B90020E149C870E348007804
:101B9000C0F3C000002889D1E048007820F0080098
:101BA0000830DE4908700120DD490870DD49087001
:101BB000AFE0FFE7DC48007803283BD1D448407809
:101BC000B0B1D348C178D348405C01280ADDD04881
:101BD000C178D048405C401EC0B2CD49CA78CD49DA
:101BE000885400E00120CA49CA78CA4988540EE0E6
:101BF000C748C078401CC649C8700846C078C64966
:101C00000978884203DDC4480078C149C870C348D8
:101C10000078C0F3C00000287BD1C048007820F0D5
:101C200008000830BD4908700120BD490870BD4951
:101C300008706EE0BC480078072834D1B4480078BA
:101C400070B1B348407858B9B148C078042807DC6F
:101C50000120AF494870B2490870B249087058E095
:101C6000AB480078C0B1AA484078A8B1A94D00207F
:101C7000A7494870002407E015F8011B04F1500043
:101C80000BF016FF601CC4B2052CF5DB0120A44943
:101C90000870A44908703CE00120A14908700320A5
:101CA000A049087035E0A048007890B39B480078C0
:101CB000C0F3C00068BB99480078C0F3001040BB77
:101CC00096480078C0F3401018BB94480078C0F3E1
:101CD0008010F0B99148007820F0400040308F49E2
:101CE00008700846007820F0200020300870084670
:101CF000007820F01000103008700846007820F0BE
:101D000008000830087001208549087003208549C3
:101D1000087000208449087070BD70B58248007852
:101D20000C2817D17A48407818B1002078494870BB
:101D30000AE003207D4908707D490870012074493C
:101D4000887008460079C870012075490870754987
:101D5000087061E1744800780E287DD16C484078A5
:101D6000002868D06A48C07801280BD06848C0783D
:101D7000042807D06648C078052803D06448C07896
:101D800006281AD16248C17862480838405C782831
:101D90000CDA5F48C1785F480838405C401CC0B22C
:101DA0005B49CA785B490839885400E07820584973
:101DB000CA7858490839885450E05548C0780228F4
:101DC0001AD15348C17853480838405C96280CDA39
:101DD0004F48C1784F480838405C401CC0B24C495D
:101DE000CA784C490839885400E096204849CA7896
:101DF00048490839885431E04548C07803282DD136
:101E00004348C17843480838405CF0280CDA404821
:101E1000C17840480838405C401CC0B23C49CA7890
:101E20003C490839885400E0F0203949CA783949DA
:101E30000839885412E03648C078401E3449C870CA
:101E40000846C07834490978884202DC3048C078B6
:101E500020B900202E4900E013E0C8702F48007818
:101E6000C0F3C00000280BD12C48007820F00800F7
:101E700008302A490870012029490870294908704A
:101E8000CAE029480078032854D121484078E8B1B5
:101E90001F48C07848B31E48C1781E480838405CC7
:101EA00001280CDD1A48C1781A480838405C401EE9
:101EB000C0B21749CA7817490839885400E0012090
:101EC0001349CA781349083988540EE01048C0787D
:101ED000401C0F49C8700846C0780F4909788842ED
:101EE00003DD0D4800780A49C8700C480078C0F33B
:101EF000C0000028C4D10948007820F0080008304C
:101F0000064908700120064908700649087083E0F8
:101F1000C31300207B1A0020BC1300205A000020AD
:101F20004A00002049000020D4140020C1130020E2
:101F3000C2130020FA480078072837D1F948007802
:101F400088B1F848407870B9F648C07806280ADCAD
:101F5000F448C07838B10120F2494870F24908705D
:101F6000F249087058E0EF480078C0B1ED48407879
:101F7000A8B1EF4D0020EB494870002407E015F8A8
:101F8000011B04F148000BF093FD601CC4B2082C47
:101F9000F5DB0120E4490870E44908703CE00120C9
:101FA000E14908700320E149087035E0DC48007819
:101FB00090B3E0480078C0F3C00068BBDD4800780B
:101FC000C0F3001040BBDB480078C0F3401018BBE2
:101FD000D8480078C0F38010F0B9D648007820F0D7
:101FE00040004030D34908700846007820F02000B7
:101FF000203008700846007820F01000103008707B
:102000000846007820F00800083008700120C64912
:1020100008700320C54908700020C149087070BDD0
:1020200070B5BF4800780C2817D1BE48407818B169
:102030000020BC4948700AE00320BF490870BF492E
:1020400008700120B749887008460079C8700120DF
:10205000B5490870B5490870B1E1B14800780E285B
:102060007ED1B048407800287BD0AE48C078D0B947
:10207000AC48C178AE480838405C63280CDAA948FF
:10208000C178AB480838405C401CC0B2A549CA784A
:10209000A7490839885400E06320A249CA78A449B6
:1020A0000839885478E09F48C078022803D09D48BA
:1020B000C07803281AD19B48C1789D480838405CF5
:1020C00078280CDA9748C17899480838405C401C59
:1020D000C0B29449CA7896490839885400E07820FB
:1020E0009049CA7892490839885455E08D48C0789B
:1020F00004281AD18B48C1788D480838405CF028F4
:102100000CDA8848C1788A480838405C401CC0B264
:102110008449CA7886490839885400E0F02081490A
:10212000CA7883490839885436E07E48C078052843
:1021300003D07C48C07806282ED17A48C1787C48E4
:102140000838405C1E280FDA7648C178784808388D
:10215000405C401CC0B27349CA787549083901E037
:102160002DE008E0885400E01E206E49CA787049CE
:102170000839885410E06B48C078401E6949C8701F
:102180000846C0786E490978884202DC6548C07804
:1021900010B900206349C87066480078C0F3C000D9
:1021A00000280BD16348007820F00800083061490E
:1021B000087001205C4908705C490870FFE05848CD
:1021C0000078032874D157484078E8B35548C07860
:1021D00058B15448C078042807D05248C078052820
:1021E00003D05048C07806281AD14E48C1785048CC
:1021F0000838405C01280CDD4A48C1784C48083852
:10220000405C401EC0B24749CA78494908398854E1
:1022100000E001204349CA7845490839885433E031
:102220004048C078022803D03E48C07803282BD10C
:102230003C48C1783E480838405C00280EDD3948EB
:10224000C1783B48083800E00FE0405C401EC0B257
:102250003449CA7836490839885400E000203149A9
:10226000CA783349083988540EE02E48C078401C9B
:102270002C49C8700846C07831490978884203DD86
:102280002F4800782749C8702A480078C0F3C0005A
:1022900000280BD12748007820F008000830254995
:1022A00008700120204908702049087087E0FFE786
:1022B0001B48007807284CD11A48007890B119487B
:1022C000407878B91748C07806280BDC1548C078E4
:1022D000012807D001201349487013490870134999
:1022E00008706CE00F480078C8B10E484078B0B173
:1022F0000F4D083D00200B494870002407E015F8F9
:10230000011B04F140000BF0D3FB601CC4B2082C8D
:10231000F5DB012004490870044908704FE011E022
:10232000D4140020C31300204A00002049000020DC
:10233000731A00205A000020C1130020C21300208D
:10234000BC1300200120FE4908700320FD490870DD
:1023500035E0FD48007890B3FC480078C0F3C00039
:1023600068BBFA480078C0F3001040BBF74800781B
:10237000C0F3401018BBF5480078C0F38010F0B9E6
:10238000F248007820F040004030F04908700846DC
:10239000007820F02000203008700846007820F0F7
:1023A0001000103008700846007820F0080008304F
:1023B00008700120E24908700320E24908700020FB
:1023C000E149087070BD70B5DF4800780C2817D15E
:1023D000DF48407818B10020DD4948700AE003204A
:1023E000DC490870DC4908700120D949887008462A
:1023F0000079C8700120D2490870D24908701EE1E6
:10240000D14800780E2860D1D1484078002838D0D3
:10241000CF48C078B0B9CE48C178D048405C632876
:102420000ADACB48C178CD48405C401CC0B2C849EC
:10243000CA78CA49885400E06320C549CA78C749A8
:1024400088542FE0C248C078012803D0C048C07823
:10245000022827D1BE48C178C048405C78280ADAF3
:10246000BB48C178BD48405C401CC0B2B849CA787E
:10247000BA49885400E07820B549CA78B7498854E9
:1024800010E0B348C078401EB149C8700846C07813
:10249000B3490978884202DCAD48C07810B9002001
:1024A000AB49C870A9480078C0F3C0000028A6D185
:1024B000A648007820F008000830A44908700120E0
:1024C0009F4908709F490870B9E09F480078032829
:1024D00046D19F48407808B39D48C07838B19C48A1
:1024E000C078012803D09A48C078022825D198489E
:1024F000C1789A48405C01280ADD9548C178974820
:10250000405C401EC0B29249CA789449885400E0A9
:1025100001208F49CA78914988540EE08C48C078D0
:10252000401C8B49C8700846C0788D49097888429C
:1025300003DD8B4800788649C87084480078C0F372
:10254000C00000287BD18148007820F008000830C6
:102550007E49087001207A4908707A4908706EE057
:1025600079480078072834D17948007870B17848E4
:10257000407858B97648C078022807DC01207449B1
:1025800048706F4908706F49087058E070480078CB
:10259000C0B16F484078A8B1704D00206C494870B8
:1025A000002407E015F8011B04F138000BF080FA55
:1025B000601CC4B2032CF5DB01206149087061493D
:1025C00008703CE001205E49087003205D490870F6
:1025D00035E05D48007890B35C480078C0F3C000F7
:1025E00068BB5A480078C0F3001040BB57480078D9
:1025F000C0F3401018BB55480078C0F38010F0B904
:102600005248007820F04000403050490870084699
:10261000007820F02000203008700846007820F074
:102620001000103008700846007820F008000830CC
:1026300008700120424908700320424908700020B8
:102640004149087070BD10B53F4800780C2817D17B
:102650003F48407818B100203D4948700AE0032007
:102660003C4908703C490870012039498870084687
:102670000079C8700120324908703249087009E1B8
:10268000314800780E2841D131484078D0B13048E7
:10269000C078012827D13148383890F83100F02827
:1026A0000ADA2E48383890F83100401CC0B22B4965
:1026B000383981F8310000E0F0202849383981F8B4
:1026C000310010E02248C078401E2149C8700846F9
:1026D000C07823490978884202DC1D48C07810B9C7
:1026E00000201B49C87019480078C0F3C0000028BA
:1026F000C5D11648007820F008000830134908704A
:1027000001200F4908700F490870C3E00E48007897
:10271000032851D10E48407860B30D48C078012895
:1027200037D10E48383890F8310001281DDD0B48AC
:10273000383890F83100401EC0B20849383911E0ED
:102740004A00002049000020D41400205A00002034
:10275000C3130020C1130020C2130020631A0020FD
:10276000BC13002081F8310000E00120FE4981F80F
:1027700031000EE0FD48C078401CFC49C870084696
:10278000C078FB490978884203DDF9480078F749A9
:10279000C870F8480078C0F3C00000287AD1F54826
:1027A000007820F008000830F24908700120F24952
:1027B0000870F24908706DE0F1480078072833D1BD
:1027C000EA480078A0B1E948407888B9E748C0787D
:1027D000012806D1E5494870E7490870E7490870C3
:1027E00058E00120E44908700320E449087051E0F2
:1027F000DE48007888B1DD48407870B10020DB49C0
:102800004870D94890F8311031200BF051F901206F
:10281000D9490870D94908703CE00120D6490870B0
:102820000320D649087035E0D548007890B3D148E8
:102830000078C0F3C00068BBCE480078C0F3001039
:1028400040BBCC480078C0F3401018BBC9480078A2
:10285000C0F38010F0B9C748007820F04000403045
:10286000C44908700846007820F020002030087025
:102870000846007820F010001030087008460078F4
:1028800020F00800083008700120BB4908700320C0
:10289000BA4908700020BA49087010BD70B5B84830
:1028A00000780C2817D1B148407818B10020AF4902
:1028B00048700AE00320B3490870B349087001204A
:1028C000AA49887008460079C8700120AA49087092
:1028D000AA4908705FE1AA4800780E287ED1A34873
:1028E0004078002864D0A148C078032822D09F48AF
:1028F000C07804281ED09D48C07806281AD09B486E
:10290000C17899482830405C63280CDA9748C17830
:1029100095482830405C401CC0B29449CA7892491E
:102920002831885400E063209049CA788E492831C4
:1029300088544EE08D48C07803281AD18B48C1785E
:1029400089482830405C32280CDA8848C1788648AB
:102950002830405C401CC0B28449CA788249283182
:10296000885400E032208149CA787F492831885450
:102970002FE07E48C07804282BD17C48C1787A4863
:102980002830405C1E280CDA7848C1787648283018
:10299000405C401CC0B27549CA78734928318854DC
:1029A00000E01E207149CA786F492831885410E030
:1029B0006E48C078401E6D49C8700846C0786C49A2
:1029C0000978884202DC6948C07810B9002067495C
:1029D000C87068480078C0F3C00000E00EE000282E
:1029E0000BD16448007820F0080008306149087075
:1029F00001206149087061490870CCE060480078A6
:102A0000032843D159484078F0B15848C078062887
:102A100029D05648C17854482830405C00280CDD45
:102A20005248C17850482830405C401EC0B24F49DF
:102A3000CA784D492831885400E000204B49CA78B3
:102A40004949283188540EE04848C078401C47491D
:102A5000C8700846C07846490978884203DD444872
:102A600000784249C87043480078C0F3C00000288D
:102A7000C3D14048007820F0080008303D49087074
:102A800001203D4908703D49087084E03C480078C9
:102A9000072835D13548007870B13448407858B9A6
:102AA0003248C078072807DC012030494870324995
:102AB0000870324908706EE02C480078C8B12B4885
:102AC0004078B0B1284D28350020284948700024AE
:102AD00007E015F8011B04F128000AF0E9FF601C6B
:102AE000C4B2082CF5DB0120234908702349087083
:102AF00051E00120204908700320204908704AE075
:102B00001F48007870B31B480078C0F3C00048BB72
:102B100018480078C0F3001020BB16480078C0F3B6
:102B20004010F8B913480078C0F38010D0B91148AC
:102B3000007820F0400040300E49087008460078C8
:102B400020F02000203008700846007820F01000A7
:102B5000103008700846007820F00800083008702F
:102B6000012013E017E000002B1A0020C3130020FF
:102B7000BC1300205A0000204A0000204900002019
:102B8000D4140020C1130020C2130020F94908709A
:102B90000320F94908700020F849087070BDF74813
:102BA00000780C2810D10320F5490870F549087009
:102BB0000120F549887008460079C8700120ED4968
:102BC0000870ED4908708EE0EC4800780E2823D19B
:102BD000ED48C078401EEC49C8700846C078EB4903
:102BE0000978884202DCE848C07810B90020E6493C
:102BF000C870E7480078C0F3C000002873D1E448EB
:102C0000007820F008000830E14908700120D94917
:102C10000870D949087066E0D8480078032821D1A7
:102C2000D948C078401CD849C8700846C078D749F0
:102C30000978884203DDD5480078D349C870D44864
:102C40000078C0F3C00000284DD1D148007820F0B2
:102C500008000830CE4908700120C6490870C649EE
:102C6000087040E0C5480078072806D10120C14916
:102C700008700320C049087035E0C048007890B360
:102C8000C3480078C0F3C00068BBC1480078C0F3F7
:102C9000001040BBBE480078C0F3401018BBBC48D1
:102CA0000078C0F38010F0B9B948007820F04000F7
:102CB0004030B74908700846007820F020002030E6
:102CC00008700846007820F01000103008700846A0
:102CD000007820F00800083008700120A54908702D
:102CE0000320A54908700020A44908707047A34834
:102CF00000780C2810D10320A1490870A149087060
:102D00000120A149887008460079C87001209949BE
:102D10000870994908708EE0984800780E2823D1F1
:102D20009948C078401E9849C8700846C0789749AD
:102D30000978884202DC9448C07810B90020924992
:102D4000C87093480078C0F3C000002873D1904841
:102D5000007820F0080008308D490870012085496E
:102D600008708549087066E084480078032821D1FE
:102D70008548C078401C8449C8700846C07883499B
:102D80000978884203DD814800787F49C87080480F
:102D90000078C0F3C00000284DD17D48007820F0B5
:102DA000080008307A490870012072490870724999
:102DB000087040E071480078072806D101206D496D
:102DC000087003206C49087035E06C48007890B3B7
:102DD0006F480078C0F3C00068BB6D480078C0F34E
:102DE000001040BB6A480078C0F3401018BB684828
:102DF0000078C0F38010F0B96548007820F04000FA
:102E00004030634908700846007820F020002030E8
:102E100008700846007820F010001030087008464E
:102E2000007820F00800083008700120514908702F
:102E3000032051490870002050490870704770B550
:102E40004E4800780C2817D14F48407818B1002020
:102E50004D4948700AE00320494908704949087003
:102E600001204949887008460079C870012041490D
:102E70000870414908704BE1404800780E2860D145
:102E800041484078A0B34048C078002846D03E482A
:102E9000C07801280ED13F48407C1E2806DA3D4804
:102EA000407C401CC0B23B49487400E01E203949B8
:102EB000487433E03448C07802280ED13548807C0D
:102EC000632806DA3348807C401CC0B231498874DC
:102ED00000E063202F49887420E02E48C07C03283E
:102EE00007DA2C48C07C401CC0B22A49C87401E0F3
:102EF00003E003202749C87410E02348C078401E2F
:102F00002149C8700846C07820490978884202DC07
:102F10001D48C07810B900201B49C8701C480078B3
:102F2000C0F3C0000028A6D11948007820F008009E
:102F300008301749087001200E4908700E490870C2
:102F4000E6E00E480078032868D10F484078D8B3EF
:102F50000D48C07818B30C48C078012820D10D481E
:102F6000407C012818DD0B48407C401EC0B2094956
:102F7000487412E04A00002049000020D4140020C8
:102F8000C1130020C2130020C3130020BC13002073
:102F90005A0000202B1A00200120FE4948742AE024
:102FA000FD48C178FB481030405C00280DDDFA4830
:102FB000C178F8481030405C401EC0B2F649CA786B
:102FC000F4491031885401E006E00020F249CA7843
:102FD000F049103188540EE0EF48C078401CEE49AB
:102FE000C8700846C078ED490978884203DDEB488F
:102FF0000078E949C870EA480078C0F3C0000028AA
:103000009ED1E748007820F008000830E4490870B5
:103010000120E4490870E449087079E0E348007849
:1030200007283FD1DC480078C0B1DB484078A8B918
:10303000D948C07803280ADCD748C07838B10120C5
:10304000D5494870D7490870D749087060E0012019
:10305000D44908700320D449087059E0CE4800785C
:10306000C8B1CD484078B0B1CA4D10350020CA492A
:103070004870002407E015F8011B04F110000AF065
:1030800017FD601CC4B2052CF5DB0120C549087092
:10309000C54908703CE00120C24908700320C249BC
:1030A000087035E0C148007890B3BD480078C0F39F
:1030B000C00068BBBA480078C0F3001040BBB848F5
:1030C0000078C0F3401018BBB5480078C0F38010FA
:1030D000F0B9B348007820F040004030B0490870A3
:1030E0000846007820F0200020300870084600785C
:1030F00020F01000103008700846007820F008001A
:10310000083008700120A74908700320A6490870FC
:103110000020A649087070BD70B5A44800780C283E
:1031200017D19D48407818B100209B4948700AE0AB
:1031300003209F4908709F490870012096498870B4
:1031400008460079C87001209649087096490870B1
:10315000E3E0964800780E2836D18F48407878B161
:103160008D48C1788B480830405C6E2801D17921A8
:1031700000E06E218848C27886480830815410E00B
:103180008548C078401E8449C8700846C078834985
:103190000978884202DC8048C07810B900207E4956
:1031A000C8707F480078C0F3C0000028D0D17C48A8
:1031B000007820F00800083079490870012079492A
:1031C000087079490870A8E078480078032834D15D
:1031D0007148407878B17048C1786E480830405CDA
:1031E0006E2801D1792100E06E216B48C2786948D0
:1031F000083081540EE06848C078401C6649C870A9
:103200000846C07865490978884203DD634800783C
:103210006149C87062480078C0F3C00000287CD1C2
:103220005F48007820F0080008305D4908700120F0
:103230005C4908705C4908706FE05C4800780728BA
:1032400035D15548007870B15348407858B9524844
:10325000C078042807D001204F49487051490870B0
:103260005149087059E04C480078C8B14A48407844
:10327000B0B1484D0835002047494870002407E0A8
:1032800015F8011B04F108000AF012FC601CC4B21E
:10329000042CF5DB012043490870434908703CE0E9
:1032A00001204049087003203F49087035E03F483D
:1032B000007890B33A480078C0F3C00068BB384843
:1032C0000078C0F3001040BB35480078C0F34010D0
:1032D00018BB33480078C0F38010F0B9304800784C
:1032E00020F0400040302E4908700846007820F059
:1032F0002000203008700846007820F010001030C0
:1033000008700846007820F0080008300870012096
:1033100024490870032024490870002023490870BC
:1033200070BD70B5214800780C2823D11A48407828
:1033300068B1002018494870002405E01E48005D6F
:103340001E490855601CC4B2062CF7DB09E00320B7
:10335000174908701749087001200F49887000202C
:10336000C87001200F4908700F49087000201449E7
:103370000870C2E10D4800780E2866D106484078F2
:1033800058B30548C078032827D10248C07864287C
:103390001FDA17E02B1A0020C3130020BC130020F3
:1033A0005A0000204A00002049000020D4140020C8
:1033B000C1130020C2130020721300206C130020E0
:1033C000201A0020FE48C078401CC0B2FC49C870DA
:1033D00000E06420FA49C8708FE1FA48407808B3E9
:1033E000F848C07805281DD1F7480078F749085CEF
:1033F000092809DAF4480078085C401CC0B2F24998
:103400000978F24A505400E00020EF490978EF4A69
:103410005054ED4800781146095CEB480278401D95
:1034200081546AE1E748C078401EE649C870084602
:10343000C078E7490978884203DCE248C078002870
:1034400097D10020DF49C87057E1E248007803288F
:1034500070D1DC48407890B1DA48C07803280ED1AA
:10346000D748C078002806DDD548C078401EC0B2D5
:10347000D349C87000E00020D149C8704CE0D14861
:10348000407808B3CF48C07805281DD1CE480078D1
:10349000CE49085C002809DDCB480078085C401E56
:1034A000C0B2C9490978C94A505400E00920C64948
:1034B0000978C64A5054C44800781146095CC2488D
:1034C0000278401D815427E0BE484078A8B1BD482D
:1034D000C07858B1BB48C078012807D0B948C07837
:1034E000022803D0B748C078042806D10120BA4981
:1034F00008700320B94908700EE0B248C078401C3B
:10350000B049C8700846C078B1490978884203DDDF
:10351000AF480078AB49C870B148007820F0080087
:103520000830AF4908700120AB490870AB490870FA
:10353000E3E0FFE7A748007807286FD1A1480078AB
:10354000E0B1A0484078C8B99E48C078022803D0AE
:103550009C48C078042805D101209F4908700320A9
:103560009E490870012097494870002096490870CC
:1035700001209949087099490870BEE09148007887
:10358000002857D08F484078002853D000208D491C
:1035900048700846C078B8B992A2122100200BF0FA
:1035A00053F809F095FF4EF660200AF061FB4EF6E5
:1035B00060200AF05DFB01208D4908708D4A1221C0
:1035C00000200BF041F82FE07E48C07801280FD191
:1035D00089A212210BF038F809F0A8FF41F27070AF
:1035E0000AF046FB834A122101200BF02DF81BE064
:1035F0007448C078052812D1744D00240BE015F8EA
:10360000011B04F1C8000AF053FA7048005D7D49BF
:103610000855601CC4B2062CF1DB05E011E06848D7
:10362000C17803200AF044FA01206B4908706B4905
:10363000087062E00120684908700320674908703B
:103640005BE0644800780F2821D15E484078B8B12B
:103650005C48C078052813D15B480078052806DA55
:1036600059480078401CC0B25749087000E000205B
:1036700055490870012058490870584908703CE0C5
:1036800001205549087003205449087035E051481D
:10369000007890B352480078C0F3C00068BB50482F
:1036A0000078C0F3001040BB4D480078C0F34010D4
:1036B00018BB4B480078C0F38010F0B94848007838
:1036C00020F040004030464908700846007820F05D
:1036D0002000203008700846007820F010001030DC
:1036E00008700846007820F00800083008700120B3
:1036F000394908700320394908700020354908709D
:1037000070BD344800780C2817D12E48007828B1B5
:1037100002203D4908703D49087004E001203A4903
:1037200008703A490870002026498870C870012046
:103730002949087029490870C7E0264800780E28F2
:1037400023D12048C078401E1E49C8700846C07862
:103750001F490978884202DC1A48C07810B9002055
:103760001849C8701E480078C0F3C0000028E3D193
:103770001B48007820F00800083019490870012023
:1037800015490870154908709FE012480078032811
:103790004AD10C48C078401C0A49C8700846C07815
:1037A0000B490978884203DD094800780549C8704B
:1037B0000B480078C0F3C000002834D1084827E047
:1037C0002B1A0020C3130020201A00206C130020A5
:1037D000BC130020D41400204A000020490000201F
:1037E0005A000020D4CBD0D0D6D02E2E2E000000F0
:1037F000B813002030060008D4CBD0D0D6D02E2E5F
:103800002E2E000072130020C1130020C2130020CE
:10381000007820F008000830FE4908700120FE49B9
:103820000870FE49087050E0FD480078072816D15E
:103830000420FC490870FC490870FC48C078FB492A
:1038400008710846C078401C88700020C8700120AC
:10385000F7490870F0490870F049087035E0F04801
:10386000007890B3EB480078C0F3C00068BBE9482B
:103870000078C0F3001040BBE6480078C0F3401069
:1038800018BBE4480078C0F38010F0B9E148007834
:1038900020F040004030DF4908700846007820F0F2
:1038A0002000203008700846007820F0100010300A
:1038B00008700846007820F00800083008700120E1
:1038C000D54908700320D54908700020D4490870F4
:1038D000704770B50220D4490870D14800780C2890
:1038E0000ED10120CF490870CF490870CF498870A8
:1038F0000020C8700120C8490870C849087032E12A
:10390000C74800780E282FD1CA480078CA49085CF9
:10391000092809DAC7480078085C401CC0B2C549CC
:103920000978C54A505400E00020C2490978C24ACB
:103930005054C04800781146095CBE480278401DCA
:103940008154B4480078C0F3C0000028D7D1B148F2
:10395000007820F008000830AE4908700120AE4918
:103960000870AE490870FEE0AD48007803282FD1FA
:10397000B0480078B049085C002809DDAD480078FF
:10398000085C401EC0B2AB490978AB4A505400E015
:103990000920A8490978A84A5054A6480078114639
:1039A000095CA4480278401D81549A480078C0F30D
:1039B000C0000028A3D19748007820F00800083004
:1039C0009449087001209449087094490870CAE02D
:1039D00093480078072878D1974800789749097864
:1039E00088422BD19448407894494978884225D11F
:1039F000914880789149897888421FD18E48C07853
:103A00008E49C978884219D18B4800798B49097948
:103A1000884213D1884840798849497988420DD134
:103A200001208249087003207E4908707E49087091
:103A300001207E4988700020C87094E07E4800789C
:103A400006283BD17C484078B0BB7B48807803286F
:103A500034D17948C07878BB7748007909282DD1CE
:103A60007548407940BB002411E0744D0220724932
:103A700008552946085502216E48401D015515F884
:103A8000011B04F1C8000AF013F8601CC4B2062C34
:103A9000EBDB012065490870032062490870624928
:103AA00008700120614988700020C87001205A49BF
:103AB00008705A49087056E000E006E001205649B7
:103AC00008700320554908704DE0554800780F28CC
:103AD00013D158480078052806DA56480078401C6B
:103AE000C0B25449087000E000205249087001201B
:103AF000494908704949087035E04948007890B351
:103B000044480078C0F3C00068BB42480078C0F366
:103B1000001040BB3F480078C0F3401018BB3D4840
:103B20000078C0F38010F0B93A48007820F04000E7
:103B30004030384908700846007820F020002030D6
:103B400008700846007820F0100010300870084611
:103B5000007820F008000830087001202E49087015
:103B600003202E49087070BD2D4909780C290FD10A
:103B700000212C4A11702C4A1170FF212B4A9170A0
:103B80000021D1700121244A1170244A1170CDE026
:103B9000234909780E2921D12449C978491E234A8D
:103BA000D1701146C978264A1278914203DD244922
:103BB00009781E4AD17017490978C1F3C00100295C
:103BC000E5D11449097821F008010831114A117032
:103BD0000121114A1170114A1170A7E010490978AA
:103BE00003293AD11149C978491C104AD1701146AC
:103BF000C978134A1278914202DD00210B4AD17034
:103C000004490978C1F3C0010029C0D101490978EC
:103C100018E000005A0000204A000020490000205F
:103C2000D4140020C1130020C2130020C3130020AD
:103C3000B8130020201A00206C13002072130020FB
:103C4000BC13002021F008010831FE4A1170012147
:103C5000FD4A1170FD4A117068E0FD490978072995
:103C60002ED1FC49C97801291CD1FA4A11700221D0
:103C7000F94A1170F94A1170002003E00021F84A56
:103C80001154401C0628F9DB0121EF4A1170EF4A5C
:103C90001170002003E00022F2490A54401C06285B
:103CA000F9DB07E00021EB4A11700321EA4A1170A9
:103CB000EA4A11700121E74A91700021D17035E084
:103CC000E349097891B3DF490978C1F3C00169BBC1
:103CD000DC490978C1F3001141BBDA490978C1F325
:103CE000401119BBD7490978C1F38011F1B9D54901
:103CF000097821F040014031D24A1170114609780B
:103D000021F02001203111701146097821F01001B5
:103D1000103111701146097821F008010831117035
:103D20000121C94A11700321C84A1170704710B5AA
:103D3000C74800780C2828D1CB480078F0B9CB4888
:103D40000078D8B9CA480078C0F38000B0B905201F
:103D5000C1490870C14908700020BE498870C87008
:103D60000120C44908700020BE49491FC8700120C5
:103D7000B5490870B549087001F0B3BE0120B249D9
:103D800008700320B1490870F6E7B14800780E28A2
:103D900071D1B9480078012804D1B8480088401C86
:103DA000B6490880B048007800284FD1AF48007865
:103DB00000284BD1AE480078C0F38000002845D1E0
:103DC000AF480078C0F3401000283FD1AD480078DC
:103DD000052818DAAB480078401CAA490870084644
:103DE0000078022805D10020A74908700120A749C2
:103DF0000870A4480078032808D10020A249087060
:103E0000A249087002E001209E4908708D480078A0
:103E100020F0080008308B49087000240EE0994912
:103E20000978491E4FF4807202EB0121214488B2C7
:103E300009F014FE96490855601CC4B2C82CEEDB8C
:103E40000120814908708149087095E77D48007814
:103E5000C0F3C00000288FD17A48007820F0080015
:103E600008307849087001207749087003207749A5
:103E7000087081E7FFE776480078032842D17E4842
:103E80000078012804D17D480088401E7B490880C5
:103E90007548007810BB75480078F8B97448007808
:103EA000C0F38000D0B976480078C0F34010A8B9BC
:103EB00006206949087069490870002065498870C2
:103EC000C87074490870744908706649491FC87001
:103ED00001205D4908705D4908704DE75948007838
:103EE000C0F3C0000028B0D15648007820F0080088
:103EF0000830544908700120534908700320534981
:103F0000087039E752480078072822D156480078CF
:103F100000289AD155480078002896D15448007856
:103F2000C0F38000002890D155480078C0F34010BD
:103F300000288AD10120484908704849087045493D
:103F400088700020C87001203F4908703F49087000
:103F500012E73F480078102850D14348007878B9DC
:103F60004248007860B942480078C0F3800038B910
:103F700043480078C0F3401010B94848007830B981
:103F8000012031490870032030490870F4E601200F
:103F900035490870424908704248007820F0010015
:103FA000401C404908703248007820F08000803082
:103FB0002F49087000203C49086001203B49C1F8A6
:103FC000A8013B48007840B13A48007820F0010051
:103FD000384908700020384908703848007820F0C7
:103FE0004000364908700020354908700120164904
:103FF00008701649087020490870BDE6144800781A
:104000000B281ED11848007890B91848007878B964
:1040100017480078C0F3800050B92048007838B1C4
:104020002848007820B10120074908700749087026
:104030000D48007820B90D48007808B90C4843E0D5
:1040400046E0C1E15A0000204A000020490000205B
:10405000D4140020C3130020C1130020C213002079
:104060006C130020251A0020010000200000002011
:1040700057000020B8130020B91300201E1500209F
:104080005B000020D61300204A1800204B180020A7
:1040900084180020BA130020BB1300202E15002026
:1040A000541800205C0000208481214200802142BD
:1040B0002F1500205E0000203E0000205D00002043
:1040C00025000020270000200078C0F3800038B1D0
:1040D000F648007820B1F6480078C0F3401030B1BF
:1040E0000120F44908700320F349087044E60020D9
:1040F000F2490870F2490870F248007820F0010097
:10410000F0490870F048007820F00400EE4908708B
:104110000020EE490870EE490870EE490870EE493B
:104120000870EE4908700120ED490860ED480078FC
:1041300020F00100EB490870EB48007820F0800087
:10414000E9490870DA48007820F08000D849087002
:10415000E448007820F00200E24908700020E349BA
:104160000870E3490870E3490870E3490870E349BF
:104170000870D5480078C0F3001080B1E04890F88E
:104180004900E0490870DE4890F84C00DE490870AC
:10419000CC48007820F00200801CCA490870CA4848
:1041A000007820F01000C8490870C648007820F058
:1041B0000400C4490870C448007820F00800C249CF
:1041C0000870C048007820F00800BE490870002040
:1041D000CA490870CD490870C248007820F0040030
:1041E000C04908700846007820F0080008700020D8
:1041F000C74908700120C74908600020C6490870F7
:10420000B848007820F01000B64908700020C34973
:1042100008700120C249C1F8B0010020C1490870EE
:10422000B048007820F04000AE4908700846007899
:1042300020F0200008700020BB4908700120B84918
:10424000C1F8AC019F48007820F010009D4908702B
:104250000846007820F0200008700846007820F01A
:10426000400008700120B14908600020B049087082
:10427000B0490870B0490870B048007820F02000BC
:10428000AE4908700020AE490870AE4908700120A0
:10429000AD49C1F89801A948007820F04000A7492D
:1042A00008708848007820F0800086490870002057
:1042B000A6490870A148007820F080009F49087046
:1042C000A348007820F00800A149087001209E4909
:1042D000C1F89C019F4800785A2818D19E48007860
:1042E000A8B99E48007890B9854890F84A009A4944
:1042F0000870834890F84D00401D98490870944814
:10430000007820F040004030914908701BE091484F
:104310000078472817D192480078A0B991480078D2
:1043200088B9774890F84B008D490870744890F828
:104330004E00401D8B4908708548007820F04000F1
:1043400040308349087083480078A0B982480078DB
:1043500088B98248007870B98148007858B9814896
:10436000007840B96748007828B96748007810B9E4
:1043700000207D4908700020764908707448007854
:1043800020F08000724908700846007820F0040090
:10439000087001205F491039086000207349C1F896
:1043A000A801734908700120424908704249087009
:1043B000002070490870524890F829006E49087032
:1043C00000206E49C870D7E46D4800780A286AD189
:1043D0003B480078002867D058480078C00900287A
:1043E00062D156480078C0F380100028F8D13648D2
:1043F0000078C0F380000028F2D12D480078C0F387
:1044000040100028ECD1294800780028E3D02D483E
:10441000007800F001000028E2D15A480078C0F38B
:10442000400000283DD12F48007800F00100C8BBB3
:1044300025480078C0F3C000A0BB2A48007820F0CF
:104440000100401C274908702748007820F08000B0
:10445000254908701648007820F08000144908703B
:104460002048007820F00200801C1E4908700320BC
:10447000454908704348007820F00400414908701D
:104480001148007820F008000F4908700D480078A6
:1044900020F004000B4908700846007820F008005E
:1044A000087006E172E0C5E109E100002E15002068
:1044B0005B0000204A00002049000020000000208E
:1044C000010000205D000020570000204E00002069
:1044D0004F0000205000002051000020520000201A
:1044E000B0012242580000205A0000204A18002043
:1044F0004B1800201600002017000020DE130020BB
:104500002B1A00202C0000202D0000204F18002026
:10451000DF1300209481214250180020DA1300207C
:104520000000214251180020DB130020A00121428D
:104530004E1800204D1800204C1800205900002073
:104540001B0000205218002000002242DC13002033
:104550005C0000201C000020380000203A000020F1
:10456000390000203B000020541800200080214228
:10457000DD130020B913002010000020201A0020B5
:10458000D41400205E0000203C000020FC4800788D
:1045900000F00100C8B3FB480078C0F3C000A0BB26
:1045A000F748007820F00100F5490870F6480078D7
:1045B00020F08000F4490870F448007820F0800072
:1045C000F2490870EE48007820F00200EC490870CB
:1045D000EC48007820F008000830EA490870EC4800
:1045E000007820F00400001DE949087008460078B2
:1045F00020F0080008700320E6490870E6480078BB
:1046000020F00400E449087053E0FFE7DC4800783C
:1046100020F00100DA490870DB48007820F08000C3
:10462000D9490870D948007820F08000D74908702F
:10463000D348007820F00200D14908700020D74903
:104640000870D7490870D7490870D7490870CD4815
:10465000007820F00800CB490870CD48007820F0A1
:104660000400CB4908700846007820F00800087064
:10467000C4480078C0F3001080B1CC4890F84900DD
:10468000CB490870C94890F84C00CA490870C04826
:10469000007820F00200801CBD490870B9480078FD
:1046A00020F01000B74908700020BC490870BC49D0
:1046B00008700120C0490870C0490870B6E0C048C1
:1046C000007800287ED1BF480078C009002879D141
:1046D000BC480078C0F38010002873D1A948007846
:1046E000C0F3800000286DD1A8480078C0F34010C6
:1046F000002867D1B4480078002863D0A14800782A
:10470000C0F3C00000285DD1B048007888BB01200C
:10471000AE4908700020AE490870AE490870AE4935
:1047200008600120AD49C1F8A8019648007820F042
:1047300080008030934908709C4890F82900A8496F
:1047400008700120A7490870A748007840B1924836
:10475000007820F00100904908700020A3490870FB
:104760008B48007820F04000894908700020A0495B
:1047700008708348007800F0010020BB8048007872
:1047800020F00100401C7E4908707F48007820F02E
:1047900080007D4908707D48007820F080007B49CA
:1047A00008707748007820F00200801C7449087077
:1047B0000320784908707848007820F00400764992
:1047C000087027E02CE06E48007820F001006C496A
:1047D00008706D48007820F080006B4908706B48C5
:1047E000007820F08000694908706548007820F062
:1047F0000200634908706348007820F008006149AE
:10480000087000206549087065490870654908709E
:10481000654908700120684908706849087005E01A
:10482000012065490870032064490870002071491F
:10483000C8705BE47048007804287DD16048007837
:10484000D0B360480078C009B0BB5E480078C0F3C0
:10485000801088BB4B480078C0F3800060BB4B4899
:104860000078C0F3401038BB5748007820B3484860
:10487000007800F00100F8B947480078C0F3400024
:10488000A8BB5E48008856490978884215DA3C483A
:1048900000786FEA90003A49097860F3820138485D
:1048A00001700078C0F3800008B33548007820F02C
:1048B0000800334908701AE01FE0314800786FEAB9
:1048C00090002F49097860F382012D48017000782B
:1048D000C0F3800028B12A48007820F00800284959
:1048E0000870012034490870032034490870012001
:1048F0003149087031490870D8E031480078E8BB88
:1049000030480078C009C8BB2E480078C0F380103A
:10491000A0BB1C480078C0F3800078BB1B4800781F
:10492000C0F3401050BB2848007838B315480078D1
:10493000C0F3C00010BB00E0BCE024480078F0B930
:10494000012022490870002021490870214908707F
:104950002149086001202149C1F8A80109480078CF
:1049600020F08000803007490870104890F8290036
:104970001B49087001201B49087041E090E054E099
:1049800058000020570000205A0000205B00002043
:104990005D0000203C0000205E0000204A1800203E
:1049A0004B18002016000020170000202B1A0020B2
:1049B0002C0000202D0000204A000020490000208B
:1049C00001000020590000202E15002000000020CA
:1049D000190000201A000020848121420080214219
:1049E00010000020541800202F1500203E00002049
:1049F00025000020201A0020D41400201E150020BD
:104A0000F848007840B1F848007820F00100F649F5
:104A100008700020F5490870F548007820F0400043
:104A2000F34908700020F3490870F3480088F349FF
:104A30000978884214DAF24800786FEA9000F04969
:104A4000097860F38201EE4801700078C0F38000BD
:104A500000B3EB48007820F00800E949087019E03D
:104A6000E74800786FEA9000E549097860F3820131
:104A7000E34801700078C0F3800028B1E048007876
:104A800020F00800DE4908700120DE49087003208C
:104A9000DD4908700120DB490870DB49087005E03A
:104AA0000120D84908700320D74908700020D74951
:104AB000C87088E4D648007808287DD1D5480078A9
:104AC000D0B3D5480078C009B0BBD3480078C0F354
:104AD000801088BBD1480078C0F3800060BBD0480C
:104AE0000078C0F3401038BBCE48007820B3C048EF
:104AF000007800F00100F8B9BB480078C0F340002E
:104B0000A8BBBD480088BD490978884215DABC4871
:104B100000786FEA1010BA49097860F30411B848B8
:104B200001700078C0F3001008B3B548007820F099
:104B30002000B34908701AE01FE0B14800786FEA1E
:104B40001010AF49097860F30411AD480170007886
:104B5000C0F3001028B1AA48007820F02000A8492E
:104B600008700120A74908700320A7490870012098
:104B7000A4490870A449087097E0A6480078E8BBEB
:104B8000A5480078C009C8BBA3480078C0F38010CE
:104B9000A0BBA2480078C0F3800078BBA048007892
:104BA000C0F3401050BB9F48007838B39B48007852
:104BB000C0F3C00010BB00E07BE09B48007898BBCE
:104BC0000120994908700020984908709849087098
:104BD0009849086001209849C1F8A8018F480078D9
:104BE00020F0800080308D490870944890F82900AA
:104BF0008249087001209249087000E04FE079482E
:104C0000007840B17848007820F0010076490870BB
:104C10000020764908707648007820F040007449FA
:104C20000870002073490870734800887349097838
:104C3000884214DA724800786FEA101070490978D7
:104C400060F304116E4801700078C0F3001000B3E7
:104C50006B48007820F020006949087019E0684826
:104C600000786FEA10106649097860F3041164480F
:104C700001700078C0F3001028B16148007820F07E
:104C800020005F49087001205E49087003205E49DA
:104C9000087001205B4908705B49087005E001203D
:104CA0005849087003205849087000205749C870B7
:104CB000BFE5574800780D2875D15648007878B37D
:104CC00055480078C00958BB53480078C0F380109D
:104CD00030BB52480078C0F3800008BB50480078D1
:104CE000C0F34010E0B94F480078C8B140480078A0
:104CF00000F00100A0B93C480078C0F3400048B97A
:104D00003F4800786FEA90103D49097860F38611BA
:104D10003B48017001203B4908703B49087097E00F
:104D2000FFE73C480078E8BB3B480078C009C8BBB7
:104D300039480078C0F38010A0BB38480078C0F331
:104D4000800078BB36480078C0F3401050BB35482F
:104D5000007838B331480078C0F3C00010BB324847
:104D6000007878BB01203049087000202F49087076
:104D70002F4908702F49086001202F49C1F8A80168
:104D80002648007820F080008030244908700120F7
:104D90002B4908701348007858B11348007820F068
:104DA000010001E04EE057E00F49087000200F4974
:104DB00008700F48007820F040000D49087000206E
:104DC0000C4908700E4800786FEA90100C49097879
:104DD00060F386110A48017001200A4908700A49E7
:104DE000087035E02F1500205E0000203E000020F6
:104DF0005D000020250000201E150020100000206E
:104E0000580000204A00002049000020201A0020FD
:104E1000D414002001000020590000205700002079
:104E20005B0000202E15002000000020190000204B
:104E30001A00002084812142008021422B1A002088
:104E4000541800200120FD4908700320FC49087017
:104E50000020FC49C870ECE4FB48007801287DD1B3
:104E6000FA480078C009002848D1F8480078C0F313
:104E70008010002842D1F6480078C0F38000E8BBDB
:104E8000F4480078C0F34010C0BBF3480078A8B3E2
:104E9000F248007800F0010080BBED480078C0F3D4
:104EA000C00058BBEE48007848B3EE480078C0F325
:104EB000400030BBEC48007818B3E848007820F098
:104EC0001000E64908700846007820F020000870BD
:104ED0000846007820F040000870DC48007820F098
:104EE0002000DA4908700020E0490870E0490870A5
:104EF0000120D24908700320D14901E08EE001E091
:104F000008704FE0DB48007848BB0120D9490870A1
:104F10000020D9490870D9490870D9490860012092
:104F2000D849C1F8A801CA48007820F08000803034
:104F3000C74908700120D4490870D448007840B1AE
:104F4000C848007820F00100C64908700020D04908
:104F50000870BF480078C0F3C00001E068E021E0BD
:104F600000B3BE48007820F01000BC490870084625
:104F7000007820F0200008700846007820F04000FB
:104F80000870B248007820F02000B0490870002076
:104F9000B6490870B64908700120A8490870032076
:104FA000A7490870AD480078C0F3401020B1AB4865
:104FB0000078C0F38010C0B9A84800786FEA1010DC
:104FC000A649097860F30411A44801700078C0F381
:104FD000001030B1AF4890F83100401CA44908706F
:104FE00016E00020A249087012E09C48007820F0EA
:104FF00010009A4908700846007820F020000870D8
:105000000846007820F04000087000209849087099
:1050100001208A4908708A49087005E00120874903
:10502000087003208649087000208649C87040E552
:105030008548007805287DD189480078E8B3834801
:105040000078C009C8BB82480078C0F38000A0BBCC
:1050500080480078C0F3401078BB7F48007860B388
:105060007E48007800F0010038BB7E480078C0F32D
:10507000400048B9794800786FEAD010774909783C
:1050800060F3C7117548017074480078C00990B387
:105090006E48007820F0400040306C4908707E482F
:1050A000007820F004007C4908700846007820F061
:1050B000100008700846007800E029E020F0400069
:1050C00008706248007820F020006049087063484A
:1050D000007820F01000614908700846007820F040
:1050E000200008700846007820F04000087000207A
:1050F0005F49087006E0FFE75448007820F0400060
:105100005249087001204D4908704D49087072E1FC
:1051100053480078002874D14C480078C009002812
:105120006FD14B480078C0F38000002869D149480E
:10513000007800E063E1C0F34010002861D14648E8
:10514000007800285DD04B48007818BB0120494901
:1051500008700020484908704849087048490860AC
:1051600001204849C1F8A8013948007820F08000A2
:10517000803037490870012043490870434800785F
:1051800040B13848007820F001003649087000200E
:105190003F4908702D480078C0F3801090B33F4815
:1051A000007878BB3E48007860BB3E48007848BB3A
:1051B0003D48007830BB2548007820F04000234966
:1051C00008700020284908702448007820F08000EA
:1051D000224908701E48007820F008001C49087019
:1051E0000846007820F0100008701C48007820F075
:1051F00004001A4908700846007820F0080008707A
:10520000EDE0F2E0FFE7124800786FEAD0001049C5
:10521000097860F3C3010E4801700078C0F3C00044
:1052200058B10020104908701B48007820F0040095
:10523000194908700846007838E09EE04A000020CE
:1052400049000020201A0020D4140020590000201A
:10525000570000205B0000202E1500205D0000207C
:10526000010000205E000020521800201B000020DA
:105270002500002000000020190000201A00002056
:105280008481214200802142541800202F150020E3
:105290003E0000202B1A0020580000204A18002051
:1052A0004B1800202A0000202B00002020F01000C6
:1052B00008700846007820F040000870F848007830
:1052C00020F02000F6490870F648007820F0100021
:1052D000F44908700846007820F02000087008465D
:1052E000007820F0400008700020EF490870EF4877
:1052F000007820F01000ED490870EA48007820F0AE
:105300000400E84908700846007820F0080008709A
:10531000E748007820F00400E54908700320E549DB
:105320000870E54890F84200E4490870E24890F8B7
:105330004300E3490870E348007820F00100E149A8
:105340000870E148007820F08000DF490870DF48ED
:10535000007820F08000DD490870DA48007820F0FD
:105360000200D84908700020D9490870D94908704E
:10537000D9490870D949087031E0C948007820F04F
:105380004000C7490870C748007820F00400C549AC
:1053900008700846007820F008000870C3480078BC
:1053A000C0F3001080B1C44890F84900CC4908709F
:1053B000C14890F84C00CB490870BA48007820F0FA
:1053C0000200801CB7490870B848007820F010002F
:1053D000B64908700020BE490870BE490870012017
:1053E000C1490870C149087005E00120BE49087034
:1053F0000320BE4908700020BD49C87071E3BD4854
:10540000007809287ED1BC48007800287BD0A748C6
:105410000078C0F38000002875D1AC480078C0F354
:10542000401000286FD1B548007800286BD09D4807
:10543000007800F00100002865D19D480078C0F395
:105440004000E8BB99480078C0F30010A8B19A4822
:1054500090F84900A2490870974890F84C00A1497B
:1054600008709048007820F00200801C8D49087078
:10547000002097490870974908708C48007820F000
:1054800010008A4908708748007820F00400854998
:1054900008708648007820F0080084490870814828
:1054A000007820F008007F4908709548007858BBC4
:1054B0000846007820F0800080300870784800E0CE
:1054C00092E0007820F080008030754908705A2002
:1054D0008B4908708B48007820F08000894908705B
:1054E000754890F8400088490870734890F8450066
:1054F000C0EB00108000854908606F4890F84400B8
:105500001E3002E088E213E10BE0814908700320BD
:10551000684908706648007820F004006449087003
:1055200062E0774800785A2828D15E48007820F059
:10553000800080305B4908705948007820F0800076
:1055400080305749087047206D4908706D480078D1
:1055500020F004006B490870574890F84600C0EBF3
:10556000001080006B4908600320524908705048C1
:10557000007820F004004E49087035E000205449BE
:1055800008705449087064490860644908606449B7
:105590000860494890F84B0062490870464890F806
:1055A0004E00401D604908705648007820F04000C9
:1055B0004030544908700846007820F08000087098
:1055C0000846007820F0040008703648007820F083
:1055D0008000344908703248007820F0800030495B
:1055E00008700020464908702D480078C009E0B3D3
:1055F0003448007820F001003249087032480078C1
:1056000020F08000304908703048007820F0800099
:105610002E4908702B48007820F0020029490870B4
:105620000846007820F0040008700846007820F052
:10563000100008700846007820F0400008701948F3
:10564000007820F01000174908700846007820F014
:10565000200008700846007820F040000870002004
:10566000114908700E48007800E013E020F0200097
:105670000B49087000202D4908700948007820F077
:105680004000074908700748007820F0800080300B
:105690000449087001201449087014490870B7E1E2
:1056A000590000205D000020250000205700002048
:1056B0005E0000203C0000202B1A00202A00002061
:1056C0002B000020580000205A0000205B00002022
:1056D0004A1800204B180020160000201700002058
:1056E0002C0000202D0000204A000020490000204E
:1056F000201A0020D4140020010000202E150020C4
:105700001C0000205C0000202E0000203000002043
:105710002F0000203400002004000020080000209A
:105720000C000020390000203B0000201B0000205E
:10573000F6480078002878D1F5480078C0F380005A
:105740000028F8D1F3480078C0F340100028F2D1C7
:10575000F1480078002868D0F048007818BB012094
:10576000EE4908700020EE490870EE490870EE49D5
:1057700008600120ED49C1F8A801E548007820F053
:1057800080008030E24908700120E9490870E9484A
:10579000007840B1E848007820F00100E649087040
:1057A0000020E6490870E6480078E8BBE548007844
:1057B00020F080008030E3490870E348007820F052
:1057C00080008030E04908705A20DD490870DF48C9
:1057D000007820F08000DD490870DD4890F8400036
:1057E000DC490870DA4890F84500C0EB00108000F2
:1057F000D9490860D64890F844001E30D74908704F
:105800000320D7490870CC48007820F00400CA492A
:105810000870BF480078C0F30010E8B3CC4890F897
:105820004900D049087001E012E0EBE0C84890F868
:105830004C00CD490870C348007820F00200801C5D
:10584000C04908700020C9490870C949087064E05F
:10585000BB4800785A282AD1BA48007820F0800046
:105860008030B8490870B848007820F08000803057
:10587000B54908704720B2490870B448007820F054
:105880000400B2490870B24890F84600C0EB00101E
:105890008000B849086000E03FE00320B04908708C
:1058A000A548007820F00400A349087035E00020E6
:1058B000AE490870AE490870AF490860AF4908604A
:1058C000AF490860A24890F84B00AE490870A04864
:1058D00090F84E00401DAC4908709C48007820F0BC
:1058E00040004030994908700846007820F0800058
:1058F00008700846007820F004000870914800788D
:1059000020F080008F4908708F48007820F08000D8
:105910008D49087000208A4908708B480078C009BA
:10592000F0B39A48007820F0010098490870984830
:10593000007820F08000964908707648007820F0C2
:105940008000744908709148007820F002008F4967
:1059500008700846007820F00400087008460078B7
:1059600020F0100008700846007820F04000087011
:105970007448007820F010007249087008460078DA
:1059800020F0200008700846007820F040000870E1
:105990000020804908706C48007820F0200000E06A
:1059A0002AE06949087000207B4908706648007841
:1059B00020F04000644908706248007820F08000C0
:1059C00080306049087001207449087050480078A0
:1059D00020F008004E4908700846007820F01000BA
:1059E00008705848007820F00400564908700846AE
:1059F000007820F0080008700120694908706949A2
:105A0000087005E0012066490870032065490870A8
:105A100000206549C87064E0644800780F2860D1B0
:105A20003A480078F0BB3D480078D8BB3848007849
:105A3000C0F38000B0BB37480078C0F3401088BB8B
:105A40004348C07A792846D13348007850B30120C2
:105A5000374908703E4890F85100401C544908707E
:105A60003B4890F8520053490870394890F8530069
:105A700051490870364890F854005049087024483D
:105A8000007820F00400001D21490870304890F88B
:105A900050004B49087001204A4908702C4890F882
:105AA0006F0000E017E064214843334908604FF479
:105AB00096703249086064203149086001203849F5
:105AC00008703849087000201749086001201749FC
:105AD000C1F8A80105E001203149087003203149CF
